{
  "_format": "hh-sol-artifact-1",
  "contractName": "NFTMarket",
  "sourceName": "contracts/NFT.sol",
  "abi": [
    {
      "inputs": [],
      "stateMutability": "nonpayable",
      "type": "constructor"
    },
    {
      "anonymous": false,
      "inputs": [
        {
          "indexed": true,
          "internalType": "address",
          "name": "owner",
          "type": "address"
        },
        {
          "indexed": true,
          "internalType": "address",
          "name": "approved",
          "type": "address"
        },
        {
          "indexed": true,
          "internalType": "uint256",
          "name": "tokenId",
          "type": "uint256"
        }
      ],
      "name": "Approval",
      "type": "event"
    },
    {
      "anonymous": false,
      "inputs": [
        {
          "indexed": true,
          "internalType": "address",
          "name": "owner",
          "type": "address"
        },
        {
          "indexed": true,
          "internalType": "address",
          "name": "operator",
          "type": "address"
        },
        {
          "indexed": false,
          "internalType": "bool",
          "name": "approved",
          "type": "bool"
        }
      ],
      "name": "ApprovalForAll",
      "type": "event"
    },
    {
      "anonymous": false,
      "inputs": [
        {
          "indexed": false,
          "internalType": "uint256",
          "name": "_fromTokenId",
          "type": "uint256"
        },
        {
          "indexed": false,
          "internalType": "uint256",
          "name": "_toTokenId",
          "type": "uint256"
        }
      ],
      "name": "BatchMetadataUpdate",
      "type": "event"
    },
    {
      "anonymous": false,
      "inputs": [
        {
          "indexed": false,
          "internalType": "uint256",
          "name": "_tokenId",
          "type": "uint256"
        }
      ],
      "name": "MetadataUpdate",
      "type": "event"
    },
    {
      "anonymous": false,
      "inputs": [
        {
          "indexed": true,
          "internalType": "address",
          "name": "previousOwner",
          "type": "address"
        },
        {
          "indexed": true,
          "internalType": "address",
          "name": "newOwner",
          "type": "address"
        }
      ],
      "name": "OwnershipTransferred",
      "type": "event"
    },
    {
      "anonymous": false,
      "inputs": [
        {
          "indexed": true,
          "internalType": "address",
          "name": "from",
          "type": "address"
        },
        {
          "indexed": true,
          "internalType": "address",
          "name": "to",
          "type": "address"
        },
        {
          "indexed": true,
          "internalType": "uint256",
          "name": "tokenId",
          "type": "uint256"
        }
      ],
      "name": "Transfer",
      "type": "event"
    },
    {
      "inputs": [
        {
          "internalType": "address",
          "name": "to",
          "type": "address"
        },
        {
          "internalType": "uint256",
          "name": "tokenId",
          "type": "uint256"
        }
      ],
      "name": "approve",
      "outputs": [],
      "stateMutability": "nonpayable",
      "type": "function"
    },
    {
      "inputs": [
        {
          "internalType": "address",
          "name": "owner",
          "type": "address"
        }
      ],
      "name": "balanceOf",
      "outputs": [
        {
          "internalType": "uint256",
          "name": "",
          "type": "uint256"
        }
      ],
      "stateMutability": "view",
      "type": "function"
    },
    {
      "inputs": [
        {
          "internalType": "string",
          "name": "tokenURI",
          "type": "string"
        }
      ],
      "name": "createNFT",
      "outputs": [
        {
          "internalType": "uint256",
          "name": "",
          "type": "uint256"
        }
      ],
      "stateMutability": "nonpayable",
      "type": "function"
    },
    {
      "inputs": [
        {
          "internalType": "uint256",
          "name": "tokenId",
          "type": "uint256"
        }
      ],
      "name": "getApproved",
      "outputs": [
        {
          "internalType": "address",
          "name": "",
          "type": "address"
        }
      ],
      "stateMutability": "view",
      "type": "function"
    },
    {
      "inputs": [
        {
          "internalType": "address",
          "name": "owner",
          "type": "address"
        },
        {
          "internalType": "address",
          "name": "operator",
          "type": "address"
        }
      ],
      "name": "isApprovedForAll",
      "outputs": [
        {
          "internalType": "bool",
          "name": "",
          "type": "bool"
        }
      ],
      "stateMutability": "view",
      "type": "function"
    },
    {
      "inputs": [],
      "name": "name",
      "outputs": [
        {
          "internalType": "string",
          "name": "",
          "type": "string"
        }
      ],
      "stateMutability": "view",
      "type": "function"
    },
    {
      "inputs": [],
      "name": "owner",
      "outputs": [
        {
          "internalType": "address",
          "name": "",
          "type": "address"
        }
      ],
      "stateMutability": "view",
      "type": "function"
    },
    {
      "inputs": [
        {
          "internalType": "uint256",
          "name": "tokenId",
          "type": "uint256"
        }
      ],
      "name": "ownerOf",
      "outputs": [
        {
          "internalType": "address",
          "name": "",
          "type": "address"
        }
      ],
      "stateMutability": "view",
      "type": "function"
    },
    {
      "inputs": [],
      "name": "renounceOwnership",
      "outputs": [],
      "stateMutability": "nonpayable",
      "type": "function"
    },
    {
      "inputs": [
        {
          "internalType": "address",
          "name": "from",
          "type": "address"
        },
        {
          "internalType": "address",
          "name": "to",
          "type": "address"
        },
        {
          "internalType": "uint256",
          "name": "tokenId",
          "type": "uint256"
        }
      ],
      "name": "safeTransferFrom",
      "outputs": [],
      "stateMutability": "nonpayable",
      "type": "function"
    },
    {
      "inputs": [
        {
          "internalType": "address",
          "name": "from",
          "type": "address"
        },
        {
          "internalType": "address",
          "name": "to",
          "type": "address"
        },
        {
          "internalType": "uint256",
          "name": "tokenId",
          "type": "uint256"
        },
        {
          "internalType": "bytes",
          "name": "data",
          "type": "bytes"
        }
      ],
      "name": "safeTransferFrom",
      "outputs": [],
      "stateMutability": "nonpayable",
      "type": "function"
    },
    {
      "inputs": [
        {
          "internalType": "address",
          "name": "operator",
          "type": "address"
        },
        {
          "internalType": "bool",
          "name": "approved",
          "type": "bool"
        }
      ],
      "name": "setApprovalForAll",
      "outputs": [],
      "stateMutability": "nonpayable",
      "type": "function"
    },
    {
      "inputs": [
        {
          "internalType": "bytes4",
          "name": "interfaceId",
          "type": "bytes4"
        }
      ],
      "name": "supportsInterface",
      "outputs": [
        {
          "internalType": "bool",
          "name": "",
          "type": "bool"
        }
      ],
      "stateMutability": "view",
      "type": "function"
    },
    {
      "inputs": [],
      "name": "symbol",
      "outputs": [
        {
          "internalType": "string",
          "name": "",
          "type": "string"
        }
      ],
      "stateMutability": "view",
      "type": "function"
    },
    {
      "inputs": [
        {
          "internalType": "uint256",
          "name": "tokenId",
          "type": "uint256"
        }
      ],
      "name": "tokenURI",
      "outputs": [
        {
          "internalType": "string",
          "name": "",
          "type": "string"
        }
      ],
      "stateMutability": "view",
      "type": "function"
    },
    {
      "inputs": [
        {
          "internalType": "address",
          "name": "from",
          "type": "address"
        },
        {
          "internalType": "address",
          "name": "to",
          "type": "address"
        },
        {
          "internalType": "uint256",
          "name": "tokenId",
          "type": "uint256"
        }
      ],
      "name": "transferFrom",
      "outputs": [],
      "stateMutability": "nonpayable",
      "type": "function"
    },
    {
      "inputs": [
        {
          "internalType": "address",
          "name": "newOwner",
          "type": "address"
        }
      ],
      "name": "transferOwnership",
      "outputs": [],
      "stateMutability": "nonpayable",
      "type": "function"
    }
  ],
  "bytecode": "0x60806040523480156200001157600080fd5b506040518060400160405280600981526020017f526f636b204e46547300000000000000000000000000000000000000000000008152506040518060400160405280600481526020017f524e46540000000000000000000000000000000000000000000000000000000081525081600090816200008f919062000412565b508060019081620000a1919062000412565b505050620000c4620000b8620000ca60201b60201c565b620000d260201b60201c565b620004f9565b600033905090565b6000600760009054906101000a900473ffffffffffffffffffffffffffffffffffffffff16905081600760006101000a81548173ffffffffffffffffffffffffffffffffffffffff021916908373ffffffffffffffffffffffffffffffffffffffff1602179055508173ffffffffffffffffffffffffffffffffffffffff168173ffffffffffffffffffffffffffffffffffffffff167f8be0079c531659141344cd1fd0a4f28419497f9722a3daafe3b4186f6b6457e060405160405180910390a35050565b600081519050919050565b7f4e487b7100000000000000000000000000000000000000000000000000000000600052604160045260246000fd5b7f4e487b7100000000000000000000000000000000000000000000000000000000600052602260045260246000fd5b600060028204905060018216806200021a57607f821691505b60208210810362000230576200022f620001d2565b5b50919050565b60008190508160005260206000209050919050565b60006020601f8301049050919050565b600082821b905092915050565b6000600883026200029a7fffffffffffffffffffffffffffffffffffffffffffffffffffffffffffffffff826200025b565b620002a686836200025b565b95508019841693508086168417925050509392505050565b6000819050919050565b6000819050919050565b6000620002f3620002ed620002e784620002be565b620002c8565b620002be565b9050919050565b6000819050919050565b6200030f83620002d2565b620003276200031e82620002fa565b84845462000268565b825550505050565b600090565b6200033e6200032f565b6200034b81848462000304565b505050565b5b8181101562000373576200036760008262000334565b60018101905062000351565b5050565b601f821115620003c2576200038c8162000236565b62000397846200024b565b81016020851015620003a7578190505b620003bf620003b6856200024b565b83018262000350565b50505b505050565b600082821c905092915050565b6000620003e760001984600802620003c7565b1980831691505092915050565b6000620004028383620003d4565b9150826002028217905092915050565b6200041d8262000198565b67ffffffffffffffff811115620004395762000438620001a3565b5b62000445825462000201565b6200045282828562000377565b600060209050601f8311600181146200048a576000841562000475578287015190505b620004818582620003f4565b865550620004f1565b601f1984166200049a8662000236565b60005b82811015620004c4578489015182556001820191506020850194506020810190506200049d565b86831015620004e45784890151620004e0601f891682620003d4565b8355505b6001600288020188555050505b505050505050565b612eb580620005096000396000f3fe608060405234801561001057600080fd5b506004361061010b5760003560e01c8063715018a6116100a2578063b88d4fde11610071578063b88d4fde146102a4578063c87b56dd146102c0578063da2ed03e146102f0578063e985e9c514610320578063f2fde38b146103505761010b565b8063715018a6146102425780638da5cb5b1461024c57806395d89b411461026a578063a22cb465146102885761010b565b806323b872dd116100de57806323b872dd146101aa57806342842e0e146101c65780636352211e146101e257806370a08231146102125761010b565b806301ffc9a71461011057806306fdde0314610140578063081812fc1461015e578063095ea7b31461018e575b600080fd5b61012a60048036038101906101259190611cf6565b61036c565b6040516101379190611d3e565b60405180910390f35b6101486103cd565b6040516101559190611de9565b60405180910390f35b61017860048036038101906101739190611e41565b61045f565b6040516101859190611eaf565b60405180910390f35b6101a860048036038101906101a39190611ef6565b6104a5565b005b6101c460048036038101906101bf9190611f36565b6105bc565b005b6101e060048036038101906101db9190611f36565b61061c565b005b6101fc60048036038101906101f79190611e41565b61063c565b6040516102099190611eaf565b60405180910390f35b61022c60048036038101906102279190611f89565b6106c2565b6040516102399190611fc5565b60405180910390f35b61024a610779565b005b61025461078d565b6040516102619190611eaf565b60405180910390f35b6102726107b7565b60405161027f9190611de9565b60405180910390f35b6102a2600480360381019061029d919061200c565b610849565b005b6102be60048036038101906102b99190612181565b61085f565b005b6102da60048036038101906102d59190611e41565b6108c1565b6040516102e79190611de9565b60405180910390f35b61030a60048036038101906103059190612264565b6109d3565b6040516103179190611fc5565b60405180910390f35b61033a600480360381019061033591906122b1565b610a4f565b6040516103479190611d3e565b60405180910390f35b61036a60048036038101906103659190611f89565b610ae3565b005b6000634906490660e01b7bffffffffffffffffffffffffffffffffffffffffffffffffffffffff1916827bffffffffffffffffffffffffffffffffffffffffffffffffffffffff191614806103c657506103c582610b66565b5b9050919050565b6060600080546103dc90612320565b80601f016020809104026020016040519081016040528092919081815260200182805461040890612320565b80156104555780601f1061042a57610100808354040283529160200191610455565b820191906000526020600020905b81548152906001019060200180831161043857829003601f168201915b5050505050905090565b600061046a82610c48565b6004600083815260200190815260200160002060009054906101000a900473ffffffffffffffffffffffffffffffffffffffff169050919050565b60006104b08261063c565b90508073ffffffffffffffffffffffffffffffffffffffff168373ffffffffffffffffffffffffffffffffffffffff1603610520576040517f08c379a0000000000000000000000000000000000000000000000000000000008152600401610517906123c3565b60405180910390fd5b8073ffffffffffffffffffffffffffffffffffffffff1661053f610c93565b73ffffffffffffffffffffffffffffffffffffffff16148061056e575061056d81610568610c93565b610a4f565b5b6105ad576040517f08c379a00000000000000000000000000000000000000000000000000000000081526004016105a490612455565b60405180910390fd5b6105b78383610c9b565b505050565b6105cd6105c7610c93565b82610d54565b61060c576040517f08c379a0000000000000000000000000000000000000000000000000000000008152600401610603906124e7565b60405180910390fd5b610617838383610de9565b505050565b6106378383836040518060200160405280600081525061085f565b505050565b600080610648836110e2565b9050600073ffffffffffffffffffffffffffffffffffffffff168173ffffffffffffffffffffffffffffffffffffffff16036106b9576040517f08c379a00000000000000000000000000000000000000000000000000000000081526004016106b090612553565b60405180910390fd5b80915050919050565b60008073ffffffffffffffffffffffffffffffffffffffff168273ffffffffffffffffffffffffffffffffffffffff1603610732576040517f08c379a0000000000000000000000000000000000000000000000000000000008152600401610729906125e5565b60405180910390fd5b600360008373ffffffffffffffffffffffffffffffffffffffff1673ffffffffffffffffffffffffffffffffffffffff168152602001908152602001600020549050919050565b61078161111f565b61078b600061119d565b565b6000600760009054906101000a900473ffffffffffffffffffffffffffffffffffffffff16905090565b6060600180546107c690612320565b80601f01602080910402602001604051908101604052809291908181526020018280546107f290612320565b801561083f5780601f106108145761010080835404028352916020019161083f565b820191906000526020600020905b81548152906001019060200180831161082257829003601f168201915b5050505050905090565b61085b610854610c93565b8383611263565b5050565b61087061086a610c93565b83610d54565b6108af576040517f08c379a00000000000000000000000000000000000000000000000000000000081526004016108a6906124e7565b60405180910390fd5b6108bb848484846113cf565b50505050565b60606108cc82610c48565b60006006600084815260200190815260200160002080546108ec90612320565b80601f016020809104026020016040519081016040528092919081815260200182805461091890612320565b80156109655780601f1061093a57610100808354040283529160200191610965565b820191906000526020600020905b81548152906001019060200180831161094857829003601f168201915b50505050509050600061097661142b565b9050600081510361098b5781925050506109ce565b6000825111156109c05780826040516020016109a8929190612641565b604051602081830303815290604052925050506109ce565b6109c984611442565b925050505b919050565b60006109df60086114aa565b60006109eb60086114c0565b90506109f733826114ce565b610a458185858080601f016020809104026020016040519081016040528093929190818152602001838380828437600081840152601f19601f820116905080830192505050505050506114ec565b8091505092915050565b6000600560008473ffffffffffffffffffffffffffffffffffffffff1673ffffffffffffffffffffffffffffffffffffffff16815260200190815260200160002060008373ffffffffffffffffffffffffffffffffffffffff1673ffffffffffffffffffffffffffffffffffffffff16815260200190815260200160002060009054906101000a900460ff16905092915050565b610aeb61111f565b600073ffffffffffffffffffffffffffffffffffffffff168173ffffffffffffffffffffffffffffffffffffffff1603610b5a576040517f08c379a0000000000000000000000000000000000000000000000000000000008152600401610b51906126d7565b60405180910390fd5b610b638161119d565b50565b60007f80ac58cd000000000000000000000000000000000000000000000000000000007bffffffffffffffffffffffffffffffffffffffffffffffffffffffff1916827bffffffffffffffffffffffffffffffffffffffffffffffffffffffff19161480610c3157507f5b5e139f000000000000000000000000000000000000000000000000000000007bffffffffffffffffffffffffffffffffffffffffffffffffffffffff1916827bffffffffffffffffffffffffffffffffffffffffffffffffffffffff1916145b80610c415750610c4082611590565b5b9050919050565b610c51816115fa565b610c90576040517f08c379a0000000000000000000000000000000000000000000000000000000008152600401610c8790612553565b60405180910390fd5b50565b600033905090565b816004600083815260200190815260200160002060006101000a81548173ffffffffffffffffffffffffffffffffffffffff021916908373ffffffffffffffffffffffffffffffffffffffff160217905550808273ffffffffffffffffffffffffffffffffffffffff16610d0e8361063c565b73ffffffffffffffffffffffffffffffffffffffff167f8c5be1e5ebec7d5bd14f71427d1e84f3dd0314c0f7b2291e5b200ac8c7c3b92560405160405180910390a45050565b600080610d608361063c565b90508073ffffffffffffffffffffffffffffffffffffffff168473ffffffffffffffffffffffffffffffffffffffff161480610da25750610da18185610a4f565b5b80610de057508373ffffffffffffffffffffffffffffffffffffffff16610dc88461045f565b73ffffffffffffffffffffffffffffffffffffffff16145b91505092915050565b8273ffffffffffffffffffffffffffffffffffffffff16610e098261063c565b73ffffffffffffffffffffffffffffffffffffffff1614610e5f576040517f08c379a0000000000000000000000000000000000000000000000000000000008152600401610e5690612769565b60405180910390fd5b600073ffffffffffffffffffffffffffffffffffffffff168273ffffffffffffffffffffffffffffffffffffffff1603610ece576040517f08c379a0000000000000000000000000000000000000000000000000000000008152600401610ec5906127fb565b60405180910390fd5b610edb838383600161163b565b8273ffffffffffffffffffffffffffffffffffffffff16610efb8261063c565b73ffffffffffffffffffffffffffffffffffffffff1614610f51576040517f08c379a0000000000000000000000000000000000000000000000000000000008152600401610f4890612769565b60405180910390fd5b6004600082815260200190815260200160002060006101000a81549073ffffffffffffffffffffffffffffffffffffffff02191690556001600360008573ffffffffffffffffffffffffffffffffffffffff1673ffffffffffffffffffffffffffffffffffffffff168152602001908152602001600020600082825403925050819055506001600360008473ffffffffffffffffffffffffffffffffffffffff1673ffffffffffffffffffffffffffffffffffffffff16815260200190815260200160002060008282540192505081905550816002600083815260200190815260200160002060006101000a81548173ffffffffffffffffffffffffffffffffffffffff021916908373ffffffffffffffffffffffffffffffffffffffff160217905550808273ffffffffffffffffffffffffffffffffffffffff168473ffffffffffffffffffffffffffffffffffffffff167fddf252ad1be2c89b69c2b068fc378daa952ba7f163c4a11628f55a4df523b3ef60405160405180910390a46110dd8383836001611641565b505050565b60006002600083815260200190815260200160002060009054906101000a900473ffffffffffffffffffffffffffffffffffffffff169050919050565b611127610c93565b73ffffffffffffffffffffffffffffffffffffffff1661114561078d565b73ffffffffffffffffffffffffffffffffffffffff161461119b576040517f08c379a000000000000000000000000000000000000000000000000000000000815260040161119290612867565b60405180910390fd5b565b6000600760009054906101000a900473ffffffffffffffffffffffffffffffffffffffff16905081600760006101000a81548173ffffffffffffffffffffffffffffffffffffffff021916908373ffffffffffffffffffffffffffffffffffffffff1602179055508173ffffffffffffffffffffffffffffffffffffffff168173ffffffffffffffffffffffffffffffffffffffff167f8be0079c531659141344cd1fd0a4f28419497f9722a3daafe3b4186f6b6457e060405160405180910390a35050565b8173ffffffffffffffffffffffffffffffffffffffff168373ffffffffffffffffffffffffffffffffffffffff16036112d1576040517f08c379a00000000000000000000000000000000000000000000000000000000081526004016112c8906128d3565b60405180910390fd5b80600560008573ffffffffffffffffffffffffffffffffffffffff1673ffffffffffffffffffffffffffffffffffffffff16815260200190815260200160002060008473ffffffffffffffffffffffffffffffffffffffff1673ffffffffffffffffffffffffffffffffffffffff16815260200190815260200160002060006101000a81548160ff0219169083151502179055508173ffffffffffffffffffffffffffffffffffffffff168373ffffffffffffffffffffffffffffffffffffffff167f17307eab39ab6107e8899845ad3d59bd9653f200f220920489ca2b5937696c31836040516113c29190611d3e565b60405180910390a3505050565b6113da848484610de9565b6113e684848484611647565b611425576040517f08c379a000000000000000000000000000000000000000000000000000000000815260040161141c90612965565b60405180910390fd5b50505050565b606060405180602001604052806000815250905090565b606061144d82610c48565b600061145761142b565b9050600081511161147757604051806020016040528060008152506114a2565b80611481846117ce565b604051602001611492929190612641565b6040516020818303038152906040525b915050919050565b6001816000016000828254019250508190555050565b600081600001549050919050565b6114e882826040518060200160405280600081525061189c565b5050565b6114f5826115fa565b611534576040517f08c379a000000000000000000000000000000000000000000000000000000000815260040161152b906129f7565b60405180910390fd5b806006600084815260200190815260200160002090816115549190612bc3565b507ff8e1a15aba9398e019f0b49df1a4fde98ee17ae345cb5f6b5e2c27f5033e8ce7826040516115849190611fc5565b60405180910390a15050565b60007f01ffc9a7000000000000000000000000000000000000000000000000000000007bffffffffffffffffffffffffffffffffffffffffffffffffffffffff1916827bffffffffffffffffffffffffffffffffffffffffffffffffffffffff1916149050919050565b60008073ffffffffffffffffffffffffffffffffffffffff1661161c836110e2565b73ffffffffffffffffffffffffffffffffffffffff1614159050919050565b50505050565b50505050565b60006116688473ffffffffffffffffffffffffffffffffffffffff166118f7565b156117c1578373ffffffffffffffffffffffffffffffffffffffff1663150b7a02611691610c93565b8786866040518563ffffffff1660e01b81526004016116b39493929190612cea565b6020604051808303816000875af19250505080156116ef57506040513d601f19601f820116820180604052508101906116ec9190612d4b565b60015b611771573d806000811461171f576040519150601f19603f3d011682016040523d82523d6000602084013e611724565b606091505b506000815103611769576040517f08c379a000000000000000000000000000000000000000000000000000000000815260040161176090612965565b60405180910390fd5b805181602001fd5b63150b7a0260e01b7bffffffffffffffffffffffffffffffffffffffffffffffffffffffff1916817bffffffffffffffffffffffffffffffffffffffffffffffffffffffff1916149150506117c6565b600190505b949350505050565b6060600060016117dd8461191a565b01905060008167ffffffffffffffff8111156117fc576117fb612056565b5b6040519080825280601f01601f19166020018201604052801561182e5781602001600182028036833780820191505090505b509050600082602001820190505b600115611891578080600190039150507f3031323334353637383961626364656600000000000000000000000000000000600a86061a8153600a858161188557611884612d78565b5b0494506000850361183c575b819350505050919050565b6118a68383611a6d565b6118b36000848484611647565b6118f2576040517f08c379a00000000000000000000000000000000000000000000000000000000081526004016118e990612965565b60405180910390fd5b505050565b6000808273ffffffffffffffffffffffffffffffffffffffff163b119050919050565b600080600090507a184f03e93ff9f4daa797ed6e38ed64bf6a1f0100000000000000008310611978577a184f03e93ff9f4daa797ed6e38ed64bf6a1f010000000000000000838161196e5761196d612d78565b5b0492506040810190505b6d04ee2d6d415b85acef810000000083106119b5576d04ee2d6d415b85acef810000000083816119ab576119aa612d78565b5b0492506020810190505b662386f26fc1000083106119e457662386f26fc1000083816119da576119d9612d78565b5b0492506010810190505b6305f5e1008310611a0d576305f5e1008381611a0357611a02612d78565b5b0492506008810190505b6127108310611a32576127108381611a2857611a27612d78565b5b0492506004810190505b60648310611a555760648381611a4b57611a4a612d78565b5b0492506002810190505b600a8310611a64576001810190505b80915050919050565b600073ffffffffffffffffffffffffffffffffffffffff168273ffffffffffffffffffffffffffffffffffffffff1603611adc576040517f08c379a0000000000000000000000000000000000000000000000000000000008152600401611ad390612df3565b60405180910390fd5b611ae5816115fa565b15611b25576040517f08c379a0000000000000000000000000000000000000000000000000000000008152600401611b1c90612e5f565b60405180910390fd5b611b3360008383600161163b565b611b3c816115fa565b15611b7c576040517f08c379a0000000000000000000000000000000000000000000000000000000008152600401611b7390612e5f565b60405180910390fd5b6001600360008473ffffffffffffffffffffffffffffffffffffffff1673ffffffffffffffffffffffffffffffffffffffff16815260200190815260200160002060008282540192505081905550816002600083815260200190815260200160002060006101000a81548173ffffffffffffffffffffffffffffffffffffffff021916908373ffffffffffffffffffffffffffffffffffffffff160217905550808273ffffffffffffffffffffffffffffffffffffffff16600073ffffffffffffffffffffffffffffffffffffffff167fddf252ad1be2c89b69c2b068fc378daa952ba7f163c4a11628f55a4df523b3ef60405160405180910390a4611c86600083836001611641565b5050565b6000604051905090565b600080fd5b600080fd5b60007fffffffff0000000000000000000000000000000000000000000000000000000082169050919050565b611cd381611c9e565b8114611cde57600080fd5b50565b600081359050611cf081611cca565b92915050565b600060208284031215611d0c57611d0b611c94565b5b6000611d1a84828501611ce1565b91505092915050565b60008115159050919050565b611d3881611d23565b82525050565b6000602082019050611d536000830184611d2f565b92915050565b600081519050919050565b600082825260208201905092915050565b60005b83811015611d93578082015181840152602081019050611d78565b60008484015250505050565b6000601f19601f8301169050919050565b6000611dbb82611d59565b611dc58185611d64565b9350611dd5818560208601611d75565b611dde81611d9f565b840191505092915050565b60006020820190508181036000830152611e038184611db0565b905092915050565b6000819050919050565b611e1e81611e0b565b8114611e2957600080fd5b50565b600081359050611e3b81611e15565b92915050565b600060208284031215611e5757611e56611c94565b5b6000611e6584828501611e2c565b91505092915050565b600073ffffffffffffffffffffffffffffffffffffffff82169050919050565b6000611e9982611e6e565b9050919050565b611ea981611e8e565b82525050565b6000602082019050611ec46000830184611ea0565b92915050565b611ed381611e8e565b8114611ede57600080fd5b50565b600081359050611ef081611eca565b92915050565b60008060408385031215611f0d57611f0c611c94565b5b6000611f1b85828601611ee1565b9250506020611f2c85828601611e2c565b9150509250929050565b600080600060608486031215611f4f57611f4e611c94565b5b6000611f5d86828701611ee1565b9350506020611f6e86828701611ee1565b9250506040611f7f86828701611e2c565b9150509250925092565b600060208284031215611f9f57611f9e611c94565b5b6000611fad84828501611ee1565b91505092915050565b611fbf81611e0b565b82525050565b6000602082019050611fda6000830184611fb6565b92915050565b611fe981611d23565b8114611ff457600080fd5b50565b60008135905061200681611fe0565b92915050565b6000806040838503121561202357612022611c94565b5b600061203185828601611ee1565b925050602061204285828601611ff7565b9150509250929050565b600080fd5b600080fd5b7f4e487b7100000000000000000000000000000000000000000000000000000000600052604160045260246000fd5b61208e82611d9f565b810181811067ffffffffffffffff821117156120ad576120ac612056565b5b80604052505050565b60006120c0611c8a565b90506120cc8282612085565b919050565b600067ffffffffffffffff8211156120ec576120eb612056565b5b6120f582611d9f565b9050602081019050919050565b82818337600083830152505050565b600061212461211f846120d1565b6120b6565b9050828152602081018484840111156121405761213f612051565b5b61214b848285612102565b509392505050565b600082601f8301126121685761216761204c565b5b8135612178848260208601612111565b91505092915050565b6000806000806080858703121561219b5761219a611c94565b5b60006121a987828801611ee1565b94505060206121ba87828801611ee1565b93505060406121cb87828801611e2c565b925050606085013567ffffffffffffffff8111156121ec576121eb611c99565b5b6121f887828801612153565b91505092959194509250565b600080fd5b600080fd5b60008083601f8401126122245761222361204c565b5b8235905067ffffffffffffffff81111561224157612240612204565b5b60208301915083600182028301111561225d5761225c612209565b5b9250929050565b6000806020838503121561227b5761227a611c94565b5b600083013567ffffffffffffffff81111561229957612298611c99565b5b6122a58582860161220e565b92509250509250929050565b600080604083850312156122c8576122c7611c94565b5b60006122d685828601611ee1565b92505060206122e785828601611ee1565b9150509250929050565b7f4e487b7100000000000000000000000000000000000000000000000000000000600052602260045260246000fd5b6000600282049050600182168061233857607f821691505b60208210810361234b5761234a6122f1565b5b50919050565b7f4552433732313a20617070726f76616c20746f2063757272656e74206f776e6560008201527f7200000000000000000000000000000000000000000000000000000000000000602082015250565b60006123ad602183611d64565b91506123b882612351565b604082019050919050565b600060208201905081810360008301526123dc816123a0565b9050919050565b7f4552433732313a20617070726f76652063616c6c6572206973206e6f7420746f60008201527f6b656e206f776e6572206f7220617070726f76656420666f7220616c6c000000602082015250565b600061243f603d83611d64565b915061244a826123e3565b604082019050919050565b6000602082019050818103600083015261246e81612432565b9050919050565b7f4552433732313a2063616c6c6572206973206e6f7420746f6b656e206f776e6560008201527f72206f7220617070726f76656400000000000000000000000000000000000000602082015250565b60006124d1602d83611d64565b91506124dc82612475565b604082019050919050565b60006020820190508181036000830152612500816124c4565b9050919050565b7f4552433732313a20696e76616c696420746f6b656e2049440000000000000000600082015250565b600061253d601883611d64565b915061254882612507565b602082019050919050565b6000602082019050818103600083015261256c81612530565b9050919050565b7f4552433732313a2061646472657373207a65726f206973206e6f74206120766160008201527f6c6964206f776e65720000000000000000000000000000000000000000000000602082015250565b60006125cf602983611d64565b91506125da82612573565b604082019050919050565b600060208201905081810360008301526125fe816125c2565b9050919050565b600081905092915050565b600061261b82611d59565b6126258185612605565b9350612635818560208601611d75565b80840191505092915050565b600061264d8285612610565b91506126598284612610565b91508190509392505050565b7f4f776e61626c653a206e6577206f776e657220697320746865207a65726f206160008201527f6464726573730000000000000000000000000000000000000000000000000000602082015250565b60006126c1602683611d64565b91506126cc82612665565b604082019050919050565b600060208201905081810360008301526126f0816126b4565b9050919050565b7f4552433732313a207472616e736665722066726f6d20696e636f72726563742060008201527f6f776e6572000000000000000000000000000000000000000000000000000000602082015250565b6000612753602583611d64565b915061275e826126f7565b604082019050919050565b6000602082019050818103600083015261278281612746565b9050919050565b7f4552433732313a207472616e7366657220746f20746865207a65726f2061646460008201527f7265737300000000000000000000000000000000000000000000000000000000602082015250565b60006127e5602483611d64565b91506127f082612789565b604082019050919050565b60006020820190508181036000830152612814816127d8565b9050919050565b7f4f776e61626c653a2063616c6c6572206973206e6f7420746865206f776e6572600082015250565b6000612851602083611d64565b915061285c8261281b565b602082019050919050565b6000602082019050818103600083015261288081612844565b9050919050565b7f4552433732313a20617070726f766520746f2063616c6c657200000000000000600082015250565b60006128bd601983611d64565b91506128c882612887565b602082019050919050565b600060208201905081810360008301526128ec816128b0565b9050919050565b7f4552433732313a207472616e7366657220746f206e6f6e20455243373231526560008201527f63656976657220696d706c656d656e7465720000000000000000000000000000602082015250565b600061294f603283611d64565b915061295a826128f3565b604082019050919050565b6000602082019050818103600083015261297e81612942565b9050919050565b7f45524337323155524953746f726167653a2055524920736574206f66206e6f6e60008201527f6578697374656e7420746f6b656e000000000000000000000000000000000000602082015250565b60006129e1602e83611d64565b91506129ec82612985565b604082019050919050565b60006020820190508181036000830152612a10816129d4565b9050919050565b60008190508160005260206000209050919050565b60006020601f8301049050919050565b600082821b905092915050565b600060088302612a797fffffffffffffffffffffffffffffffffffffffffffffffffffffffffffffffff82612a3c565b612a838683612a3c565b95508019841693508086168417925050509392505050565b6000819050919050565b6000612ac0612abb612ab684611e0b565b612a9b565b611e0b565b9050919050565b6000819050919050565b612ada83612aa5565b612aee612ae682612ac7565b848454612a49565b825550505050565b600090565b612b03612af6565b612b0e818484612ad1565b505050565b5b81811015612b3257612b27600082612afb565b600181019050612b14565b5050565b601f821115612b7757612b4881612a17565b612b5184612a2c565b81016020851015612b60578190505b612b74612b6c85612a2c565b830182612b13565b50505b505050565b600082821c905092915050565b6000612b9a60001984600802612b7c565b1980831691505092915050565b6000612bb38383612b89565b9150826002028217905092915050565b612bcc82611d59565b67ffffffffffffffff811115612be557612be4612056565b5b612bef8254612320565b612bfa828285612b36565b600060209050601f831160018114612c2d5760008415612c1b578287015190505b612c258582612ba7565b865550612c8d565b601f198416612c3b86612a17565b60005b82811015612c6357848901518255600182019150602085019450602081019050612c3e565b86831015612c805784890151612c7c601f891682612b89565b8355505b6001600288020188555050505b505050505050565b600081519050919050565b600082825260208201905092915050565b6000612cbc82612c95565b612cc68185612ca0565b9350612cd6818560208601611d75565b612cdf81611d9f565b840191505092915050565b6000608082019050612cff6000830187611ea0565b612d0c6020830186611ea0565b612d196040830185611fb6565b8181036060830152612d2b8184612cb1565b905095945050505050565b600081519050612d4581611cca565b92915050565b600060208284031215612d6157612d60611c94565b5b6000612d6f84828501612d36565b91505092915050565b7f4e487b7100000000000000000000000000000000000000000000000000000000600052601260045260246000fd5b7f4552433732313a206d696e7420746f20746865207a65726f2061646472657373600082015250565b6000612ddd602083611d64565b9150612de882612da7565b602082019050919050565b60006020820190508181036000830152612e0c81612dd0565b9050919050565b7f4552433732313a20746f6b656e20616c7265616479206d696e74656400000000600082015250565b6000612e49601c83611d64565b9150612e5482612e13565b602082019050919050565b60006020820190508181036000830152612e7881612e3c565b905091905056fea2646970667358221220923da1914dd6ce4578b269b8e4bddeabdf741fed15ec9145d078c89cb54200a064736f6c63430008130033",
  "linkReferences": {},
  "deployedLinkReferences": {}
}